{
  "_format": "hh-sol-artifact-1",
  "contractName": "Saygm",
  "sourceName": "contracts/Saygm.sol",
  "abi": [
    {
      "inputs": [],
      "stateMutability": "nonpayable",
      "type": "constructor"
    },
    {
      "anonymous": false,
      "inputs": [
        {
          "indexed": true,
          "internalType": "address",
          "name": "from",
          "type": "address"
        },
        {
          "indexed": false,
          "internalType": "string",
          "name": "answer",
          "type": "string"
        }
      ],
      "name": "NewAnswer",
      "type": "event"
    },
    {
      "anonymous": false,
      "inputs": [
        {
          "indexed": true,
          "internalType": "address",
          "name": "previousOwner",
          "type": "address"
        },
        {
          "indexed": true,
          "internalType": "address",
          "name": "newOwner",
          "type": "address"
        }
      ],
      "name": "OwnershipTransferred",
      "type": "event"
    },
    {
      "inputs": [
        {
          "internalType": "string",
          "name": "input",
          "type": "string"
        }
      ],
      "name": "answer",
      "outputs": [],
      "stateMutability": "nonpayable",
      "type": "function"
    },
    {
      "inputs": [],
      "name": "getAnswers",
      "outputs": [
        {
          "components": [
            {
              "internalType": "address",
              "name": "from",
              "type": "address"
            },
            {
              "internalType": "string",
              "name": "answer",
              "type": "string"
            }
          ],
          "internalType": "struct Saygm.Answer[]",
          "name": "",
          "type": "tuple[]"
        }
      ],
      "stateMutability": "view",
      "type": "function"
    },
    {
      "inputs": [],
      "name": "getPrompt",
      "outputs": [
        {
          "internalType": "string",
          "name": "",
          "type": "string"
        }
      ],
      "stateMutability": "view",
      "type": "function"
    },
    {
      "inputs": [],
      "name": "owner",
      "outputs": [
        {
          "internalType": "address",
          "name": "",
          "type": "address"
        }
      ],
      "stateMutability": "view",
      "type": "function"
    },
    {
      "inputs": [],
      "name": "prompt",
      "outputs": [
        {
          "internalType": "string",
          "name": "",
          "type": "string"
        }
      ],
      "stateMutability": "view",
      "type": "function"
    },
    {
      "inputs": [],
      "name": "renounceOwnership",
      "outputs": [],
      "stateMutability": "nonpayable",
      "type": "function"
    },
    {
      "inputs": [
        {
          "internalType": "string",
          "name": "newPrompt",
          "type": "string"
        }
      ],
      "name": "setPrompt",
      "outputs": [],
      "stateMutability": "nonpayable",
      "type": "function"
    },
    {
      "inputs": [
        {
          "internalType": "address",
          "name": "newOwner",
          "type": "address"
        }
      ],
      "name": "transferOwnership",
      "outputs": [],
      "stateMutability": "nonpayable",
      "type": "function"
    }
  ],
  "bytecode": "0x60806040526040518060400160405280600681526020017f53617920676d0000000000000000000000000000000000000000000000000000815250600190805190602001906200005192919062000152565b503480156200005f57600080fd5b5062000080620000746200008660201b60201c565b6200008e60201b60201c565b62000267565b600033905090565b60008060009054906101000a900473ffffffffffffffffffffffffffffffffffffffff169050816000806101000a81548173ffffffffffffffffffffffffffffffffffffffff021916908373ffffffffffffffffffffffffffffffffffffffff1602179055508173ffffffffffffffffffffffffffffffffffffffff168173ffffffffffffffffffffffffffffffffffffffff167f8be0079c531659141344cd1fd0a4f28419497f9722a3daafe3b4186f6b6457e060405160405180910390a35050565b828054620001609062000231565b90600052602060002090601f016020900481019282620001845760008555620001d0565b82601f106200019f57805160ff1916838001178555620001d0565b82800160010185558215620001d0579182015b82811115620001cf578251825591602001919060010190620001b2565b5b509050620001df9190620001e3565b5090565b5b80821115620001fe576000816000905550600101620001e4565b5090565b7f4e487b7100000000000000000000000000000000000000000000000000000000600052602260045260246000fd5b600060028204905060018216806200024a57607f821691505b6020821081141562000261576200026062000202565b5b50919050565b610f5680620002776000396000f3fe608060405234801561001057600080fd5b50600436106100885760003560e01c8063b4ac024f1161005b578063b4ac024f146100ef578063c793fcf91461010b578063f2fde38b14610129578063fc5be82f1461014557610088565b8063715018a61461008d5780637c65d711146100975780638da5cb5b146100b5578063b2a4a50e146100d3575b600080fd5b610095610163565b005b61009f6101eb565b6040516100ac91906109de565b60405180910390f35b6100bd610279565b6040516100ca9190610a41565b60405180910390f35b6100ed60048036038101906100e89190610ba5565b6102a2565b005b61010960048036038101906101049190610ba5565b6103af565b005b610113610453565b6040516101209190610d46565b60405180910390f35b610143600480360381019061013e9190610d94565b61059a565b005b61014d610692565b60405161015a91906109de565b60405180910390f35b61016b610724565b73ffffffffffffffffffffffffffffffffffffffff16610189610279565b73ffffffffffffffffffffffffffffffffffffffff16146101df576040517f08c379a00000000000000000000000000000000000000000000000000000000081526004016101d690610e0d565b60405180910390fd5b6101e9600061072c565b565b600180546101f890610e5c565b80601f016020809104026020016040519081016040528092919081815260200182805461022490610e5c565b80156102715780601f1061024657610100808354040283529160200191610271565b820191906000526020600020905b81548152906001019060200180831161025457829003601f168201915b505050505081565b60008060009054906101000a900473ffffffffffffffffffffffffffffffffffffffff16905090565b600260405180604001604052803373ffffffffffffffffffffffffffffffffffffffff16815260200183815250908060018154018082558091505060019003906000526020600020906002020160009091909190915060008201518160000160006101000a81548173ffffffffffffffffffffffffffffffffffffffff021916908373ffffffffffffffffffffffffffffffffffffffff160217905550602082015181600101908051906020019061035b9291906107f0565b5050503373ffffffffffffffffffffffffffffffffffffffff167fd0fed139d60b3409c2f3870321ffb994233ffadfa8962a47fba4d9f01decd972826040516103a491906109de565b60405180910390a250565b6103b7610724565b73ffffffffffffffffffffffffffffffffffffffff166103d5610279565b73ffffffffffffffffffffffffffffffffffffffff161461042b576040517f08c379a000000000000000000000000000000000000000000000000000000000815260040161042290610e0d565b60405180910390fd5b80600190805190602001906104419291906107f0565b50600260006104509190610876565b50565b60606002805480602002602001604051908101604052809291908181526020016000905b8282101561059157838290600052602060002090600202016040518060400160405290816000820160009054906101000a900473ffffffffffffffffffffffffffffffffffffffff1673ffffffffffffffffffffffffffffffffffffffff1673ffffffffffffffffffffffffffffffffffffffff16815260200160018201805461050090610e5c565b80601f016020809104026020016040519081016040528092919081815260200182805461052c90610e5c565b80156105795780601f1061054e57610100808354040283529160200191610579565b820191906000526020600020905b81548152906001019060200180831161055c57829003601f168201915b50505050508152505081526020019060010190610477565b50505050905090565b6105a2610724565b73ffffffffffffffffffffffffffffffffffffffff166105c0610279565b73ffffffffffffffffffffffffffffffffffffffff1614610616576040517f08c379a000000000000000000000000000000000000000000000000000000000815260040161060d90610e0d565b60405180910390fd5b600073ffffffffffffffffffffffffffffffffffffffff168173ffffffffffffffffffffffffffffffffffffffff161415610686576040517f08c379a000000000000000000000000000000000000000000000000000000000815260040161067d90610f00565b60405180910390fd5b61068f8161072c565b50565b6060600180546106a190610e5c565b80601f01602080910402602001604051908101604052809291908181526020018280546106cd90610e5c565b801561071a5780601f106106ef5761010080835404028352916020019161071a565b820191906000526020600020905b8154815290600101906020018083116106fd57829003601f168201915b5050505050905090565b600033905090565b60008060009054906101000a900473ffffffffffffffffffffffffffffffffffffffff169050816000806101000a81548173ffffffffffffffffffffffffffffffffffffffff021916908373ffffffffffffffffffffffffffffffffffffffff1602179055508173ffffffffffffffffffffffffffffffffffffffff168173ffffffffffffffffffffffffffffffffffffffff167f8be0079c531659141344cd1fd0a4f28419497f9722a3daafe3b4186f6b6457e060405160405180910390a35050565b8280546107fc90610e5c565b90600052602060002090601f01602090048101928261081e5760008555610865565b82601f1061083757805160ff1916838001178555610865565b82800160010185558215610865579182015b82811115610864578251825591602001919060010190610849565b5b509050610872919061089a565b5090565b508054600082556002029060005260206000209081019061089791906108b7565b50565b5b808211156108b357600081600090555060010161089b565b5090565b5b8082111561090157600080820160006101000a81549073ffffffffffffffffffffffffffffffffffffffff02191690556001820160006108f89190610905565b506002016108b8565b5090565b50805461091190610e5c565b6000825580601f106109235750610942565b601f016020900490600052602060002090810190610941919061089a565b5b50565b600081519050919050565b600082825260208201905092915050565b60005b8381101561097f578082015181840152602081019050610964565b8381111561098e576000848401525b50505050565b6000601f19601f8301169050919050565b60006109b082610945565b6109ba8185610950565b93506109ca818560208601610961565b6109d381610994565b840191505092915050565b600060208201905081810360008301526109f881846109a5565b905092915050565b600073ffffffffffffffffffffffffffffffffffffffff82169050919050565b6000610a2b82610a00565b9050919050565b610a3b81610a20565b82525050565b6000602082019050610a566000830184610a32565b92915050565b6000604051905090565b600080fd5b600080fd5b600080fd5b600080fd5b7f4e487b7100000000000000000000000000000000000000000000000000000000600052604160045260246000fd5b610ab282610994565b810181811067ffffffffffffffff82111715610ad157610ad0610a7a565b5b80604052505050565b6000610ae4610a5c565b9050610af08282610aa9565b919050565b600067ffffffffffffffff821115610b1057610b0f610a7a565b5b610b1982610994565b9050602081019050919050565b82818337600083830152505050565b6000610b48610b4384610af5565b610ada565b905082815260208101848484011115610b6457610b63610a75565b5b610b6f848285610b26565b509392505050565b600082601f830112610b8c57610b8b610a70565b5b8135610b9c848260208601610b35565b91505092915050565b600060208284031215610bbb57610bba610a66565b5b600082013567ffffffffffffffff811115610bd957610bd8610a6b565b5b610be584828501610b77565b91505092915050565b600081519050919050565b600082825260208201905092915050565b6000819050602082019050919050565b610c2381610a20565b82525050565b600082825260208201905092915050565b6000610c4582610945565b610c4f8185610c29565b9350610c5f818560208601610961565b610c6881610994565b840191505092915050565b6000604083016000830151610c8b6000860182610c1a565b5060208301518482036020860152610ca38282610c3a565b9150508091505092915050565b6000610cbc8383610c73565b905092915050565b6000602082019050919050565b6000610cdc82610bee565b610ce68185610bf9565b935083602082028501610cf885610c0a565b8060005b85811015610d345784840389528151610d158582610cb0565b9450610d2083610cc4565b925060208a01995050600181019050610cfc565b50829750879550505050505092915050565b60006020820190508181036000830152610d608184610cd1565b905092915050565b610d7181610a20565b8114610d7c57600080fd5b50565b600081359050610d8e81610d68565b92915050565b600060208284031215610daa57610da9610a66565b5b6000610db884828501610d7f565b91505092915050565b7f4f776e61626c653a2063616c6c6572206973206e6f7420746865206f776e6572600082015250565b6000610df7602083610950565b9150610e0282610dc1565b602082019050919050565b60006020820190508181036000830152610e2681610dea565b9050919050565b7f4e487b7100000000000000000000000000000000000000000000000000000000600052602260045260246000fd5b60006002820490506001821680610e7457607f821691505b60208210811415610e8857610e87610e2d565b5b50919050565b7f4f776e61626c653a206e6577206f776e657220697320746865207a65726f206160008201527f6464726573730000000000000000000000000000000000000000000000000000602082015250565b6000610eea602683610950565b9150610ef582610e8e565b604082019050919050565b60006020820190508181036000830152610f1981610edd565b905091905056fea26469706673582212206fc87625e4dacf039e94ea16b55e6be683ddb1f2cd953479c3664caca862475664736f6c634300080a0033",
  "linkReferences": {},
  "deployedLinkReferences": {}
}